{
  "_format": "hh-sol-artifact-1",
  "contractName": "FHE_BLOG",
  "sourceName": "contracts/FheBlog.sol",
  "abi": [
    {
      "inputs": [],
      "stateMutability": "nonpayable",
      "type": "constructor"
    },
    {
      "inputs": [],
      "name": "ECDSAInvalidSignature",
      "type": "error"
    },
    {
      "inputs": [
        {
          "internalType": "uint256",
          "name": "length",
          "type": "uint256"
        }
      ],
      "name": "ECDSAInvalidSignatureLength",
      "type": "error"
    },
    {
      "inputs": [
        {
          "internalType": "bytes32",
          "name": "s",
          "type": "bytes32"
        }
      ],
      "name": "ECDSAInvalidSignatureS",
      "type": "error"
    },
    {
      "inputs": [
        {
          "internalType": "address",
          "name": "sender",
          "type": "address"
        },
        {
          "internalType": "uint256",
          "name": "tokenId",
          "type": "uint256"
        },
        {
          "internalType": "address",
          "name": "owner",
          "type": "address"
        }
      ],
      "name": "ERC721IncorrectOwner",
      "type": "error"
    },
    {
      "inputs": [
        {
          "internalType": "address",
          "name": "operator",
          "type": "address"
        },
        {
          "internalType": "uint256",
          "name": "tokenId",
          "type": "uint256"
        }
      ],
      "name": "ERC721InsufficientApproval",
      "type": "error"
    },
    {
      "inputs": [
        {
          "internalType": "address",
          "name": "approver",
          "type": "address"
        }
      ],
      "name": "ERC721InvalidApprover",
      "type": "error"
    },
    {
      "inputs": [
        {
          "internalType": "address",
          "name": "operator",
          "type": "address"
        }
      ],
      "name": "ERC721InvalidOperator",
      "type": "error"
    },
    {
      "inputs": [
        {
          "internalType": "address",
          "name": "owner",
          "type": "address"
        }
      ],
      "name": "ERC721InvalidOwner",
      "type": "error"
    },
    {
      "inputs": [
        {
          "internalType": "address",
          "name": "receiver",
          "type": "address"
        }
      ],
      "name": "ERC721InvalidReceiver",
      "type": "error"
    },
    {
      "inputs": [
        {
          "internalType": "address",
          "name": "sender",
          "type": "address"
        }
      ],
      "name": "ERC721InvalidSender",
      "type": "error"
    },
    {
      "inputs": [
        {
          "internalType": "uint256",
          "name": "tokenId",
          "type": "uint256"
        }
      ],
      "name": "ERC721NonexistentToken",
      "type": "error"
    },
    {
      "inputs": [],
      "name": "InvalidInitialization",
      "type": "error"
    },
    {
      "inputs": [],
      "name": "NotInitializing",
      "type": "error"
    },
    {
      "anonymous": false,
      "inputs": [
        {
          "indexed": true,
          "internalType": "address",
          "name": "owner",
          "type": "address"
        },
        {
          "indexed": true,
          "internalType": "address",
          "name": "approved",
          "type": "address"
        },
        {
          "indexed": true,
          "internalType": "uint256",
          "name": "tokenId",
          "type": "uint256"
        }
      ],
      "name": "Approval",
      "type": "event"
    },
    {
      "anonymous": false,
      "inputs": [
        {
          "indexed": true,
          "internalType": "address",
          "name": "owner",
          "type": "address"
        },
        {
          "indexed": true,
          "internalType": "address",
          "name": "operator",
          "type": "address"
        },
        {
          "indexed": false,
          "internalType": "bool",
          "name": "approved",
          "type": "bool"
        }
      ],
      "name": "ApprovalForAll",
      "type": "event"
    },
    {
      "anonymous": false,
      "inputs": [
        {
          "indexed": false,
          "internalType": "uint64",
          "name": "version",
          "type": "uint64"
        }
      ],
      "name": "Initialized",
      "type": "event"
    },
    {
      "anonymous": false,
      "inputs": [
        {
          "indexed": true,
          "internalType": "address",
          "name": "from",
          "type": "address"
        },
        {
          "indexed": true,
          "internalType": "address",
          "name": "to",
          "type": "address"
        },
        {
          "indexed": true,
          "internalType": "uint256",
          "name": "tokenId",
          "type": "uint256"
        }
      ],
      "name": "Transfer",
      "type": "event"
    },
    {
      "inputs": [],
      "name": "TOKEN_URI",
      "outputs": [
        {
          "internalType": "string",
          "name": "",
          "type": "string"
        }
      ],
      "stateMutability": "view",
      "type": "function"
    },
    {
      "inputs": [
        {
          "internalType": "address",
          "name": "to",
          "type": "address"
        },
        {
          "internalType": "uint256",
          "name": "tokenId",
          "type": "uint256"
        }
      ],
      "name": "approve",
      "outputs": [],
      "stateMutability": "nonpayable",
      "type": "function"
    },
    {
      "inputs": [
        {
          "internalType": "address",
          "name": "owner",
          "type": "address"
        }
      ],
      "name": "balanceOf",
      "outputs": [
        {
          "internalType": "uint256",
          "name": "",
          "type": "uint256"
        }
      ],
      "stateMutability": "view",
      "type": "function"
    },
    {
      "inputs": [
        {
          "internalType": "uint8",
          "name": "relayer_id",
          "type": "uint8"
        },
        {
          "internalType": "address",
          "name": "caller",
          "type": "address"
        },
        {
          "internalType": "uint64",
          "name": "_nonce",
          "type": "uint64"
        },
        {
          "internalType": "bytes",
          "name": "signature",
          "type": "bytes"
        }
      ],
      "name": "claimReward",
      "outputs": [],
      "stateMutability": "nonpayable",
      "type": "function"
    },
    {
      "inputs": [
        {
          "internalType": "uint256",
          "name": "nft",
          "type": "uint256"
        },
        {
          "internalType": "uint8",
          "name": "relayer_id",
          "type": "uint8"
        },
        {
          "internalType": "address",
          "name": "caller",
          "type": "address"
        },
        {
          "internalType": "uint256",
          "name": "_nonce",
          "type": "uint256"
        },
        {
          "internalType": "bytes",
          "name": "signature",
          "type": "bytes"
        }
      ],
      "name": "generateJwt",
      "outputs": [
        {
          "components": [
            {
              "internalType": "bytes[2]",
              "name": "p",
              "type": "bytes[2]"
            }
          ],
          "internalType": "struct DecryptedBlog",
          "name": "",
          "type": "tuple"
        }
      ],
      "stateMutability": "view",
      "type": "function"
    },
    {
      "inputs": [
        {
          "internalType": "uint256",
          "name": "tokenId",
          "type": "uint256"
        }
      ],
      "name": "getApproved",
      "outputs": [
        {
          "internalType": "address",
          "name": "",
          "type": "address"
        }
      ],
      "stateMutability": "view",
      "type": "function"
    },
    {
      "inputs": [
        {
          "internalType": "uint256",
          "name": "relayer_id",
          "type": "uint256"
        }
      ],
      "name": "getCid",
      "outputs": [
        {
          "internalType": "bytes",
          "name": "",
          "type": "bytes"
        }
      ],
      "stateMutability": "view",
      "type": "function"
    },
    {
      "inputs": [],
      "name": "getTokenCounter",
      "outputs": [
        {
          "internalType": "uint256",
          "name": "",
          "type": "uint256"
        }
      ],
      "stateMutability": "view",
      "type": "function"
    },
    {
      "inputs": [],
      "name": "increaseNonce",
      "outputs": [],
      "stateMutability": "nonpayable",
      "type": "function"
    },
    {
      "inputs": [
        {
          "components": [
            {
              "internalType": "bytes[]",
              "name": "cid",
              "type": "bytes[]"
            },
            {
              "internalType": "bytes[][]",
              "name": "p",
              "type": "bytes[][]"
            },
            {
              "internalType": "bytes32[]",
              "name": "publicKey",
              "type": "bytes32[]"
            }
          ],
          "internalType": "struct BlogStorage",
          "name": "_data",
          "type": "tuple"
        },
        {
          "internalType": "string",
          "name": "_nft_name",
          "type": "string"
        },
        {
          "internalType": "string",
          "name": "_nft_short_name",
          "type": "string"
        }
      ],
      "name": "initialize",
      "outputs": [],
      "stateMutability": "nonpayable",
      "type": "function"
    },
    {
      "inputs": [
        {
          "internalType": "address",
          "name": "owner",
          "type": "address"
        },
        {
          "internalType": "address",
          "name": "operator",
          "type": "address"
        }
      ],
      "name": "isApprovedForAll",
      "outputs": [
        {
          "internalType": "bool",
          "name": "",
          "type": "bool"
        }
      ],
      "stateMutability": "view",
      "type": "function"
    },
    {
      "inputs": [
        {
          "internalType": "address",
          "name": "",
          "type": "address"
        }
      ],
      "name": "latest_nonce",
      "outputs": [
        {
          "internalType": "uint64",
          "name": "",
          "type": "uint64"
        }
      ],
      "stateMutability": "view",
      "type": "function"
    },
    {
      "inputs": [],
      "name": "mintNft",
      "outputs": [],
      "stateMutability": "nonpayable",
      "type": "function"
    },
    {
      "inputs": [],
      "name": "name",
      "outputs": [
        {
          "internalType": "string",
          "name": "",
          "type": "string"
        }
      ],
      "stateMutability": "view",
      "type": "function"
    },
    {
      "inputs": [
        {
          "internalType": "uint256",
          "name": "tokenId",
          "type": "uint256"
        }
      ],
      "name": "ownerOf",
      "outputs": [
        {
          "internalType": "address",
          "name": "",
          "type": "address"
        }
      ],
      "stateMutability": "view",
      "type": "function"
    },
    {
      "inputs": [
        {
          "internalType": "address",
          "name": "",
          "type": "address"
        }
      ],
      "name": "reward",
      "outputs": [
        {
          "internalType": "uint256",
          "name": "",
          "type": "uint256"
        }
      ],
      "stateMutability": "view",
      "type": "function"
    },
    {
      "inputs": [],
      "name": "s_tokenCounter",
      "outputs": [
        {
          "internalType": "uint256",
          "name": "",
          "type": "uint256"
        }
      ],
      "stateMutability": "view",
      "type": "function"
    },
    {
      "inputs": [
        {
          "internalType": "address",
          "name": "from",
          "type": "address"
        },
        {
          "internalType": "address",
          "name": "to",
          "type": "address"
        },
        {
          "internalType": "uint256",
          "name": "tokenId",
          "type": "uint256"
        }
      ],
      "name": "safeTransferFrom",
      "outputs": [],
      "stateMutability": "nonpayable",
      "type": "function"
    },
    {
      "inputs": [
        {
          "internalType": "address",
          "name": "from",
          "type": "address"
        },
        {
          "internalType": "address",
          "name": "to",
          "type": "address"
        },
        {
          "internalType": "uint256",
          "name": "tokenId",
          "type": "uint256"
        },
        {
          "internalType": "bytes",
          "name": "data",
          "type": "bytes"
        }
      ],
      "name": "safeTransferFrom",
      "outputs": [],
      "stateMutability": "nonpayable",
      "type": "function"
    },
    {
      "inputs": [
        {
          "internalType": "address",
          "name": "operator",
          "type": "address"
        },
        {
          "internalType": "bool",
          "name": "approved",
          "type": "bool"
        }
      ],
      "name": "setApprovalForAll",
      "outputs": [],
      "stateMutability": "nonpayable",
      "type": "function"
    },
    {
      "inputs": [
        {
          "internalType": "bytes4",
          "name": "interfaceId",
          "type": "bytes4"
        }
      ],
      "name": "supportsInterface",
      "outputs": [
        {
          "internalType": "bool",
          "name": "",
          "type": "bool"
        }
      ],
      "stateMutability": "view",
      "type": "function"
    },
    {
      "inputs": [],
      "name": "symbol",
      "outputs": [
        {
          "internalType": "string",
          "name": "",
          "type": "string"
        }
      ],
      "stateMutability": "view",
      "type": "function"
    },
    {
      "inputs": [
        {
          "internalType": "uint256",
          "name": "tokenId",
          "type": "uint256"
        }
      ],
      "name": "tokenURI",
      "outputs": [
        {
          "internalType": "string",
          "name": "",
          "type": "string"
        }
      ],
      "stateMutability": "view",
      "type": "function"
    },
    {
      "inputs": [
        {
          "internalType": "address",
          "name": "from",
          "type": "address"
        },
        {
          "internalType": "address",
          "name": "to",
          "type": "address"
        },
        {
          "internalType": "uint256",
          "name": "tokenId",
          "type": "uint256"
        }
      ],
      "name": "transferFrom",
      "outputs": [],
      "stateMutability": "nonpayable",
      "type": "function"
    },
    {
      "inputs": [
        {
          "internalType": "uint8",
          "name": "relayer_id",
          "type": "uint8"
        },
        {
          "internalType": "uint256",
          "name": "nonce",
          "type": "uint256"
        },
        {
          "internalType": "address",
          "name": "signer",
          "type": "address"
        },
        {
          "internalType": "bytes",
          "name": "signature",
          "type": "bytes"
        }
      ],
      "name": "verifySignature",
      "outputs": [
        {
          "internalType": "bool",
          "name": "",
          "type": "bool"
        }
      ],
      "stateMutability": "pure",
      "type": "function"
    }
  ],
  "bytecode": "0x608060405234801561000f575f80fd5b5061001861001d565b6100cf565b7ff0c57e16840df040f15088dc2f81fe391c3923bec73e23a9662efc9c229c6a00805468010000000000000000900460ff161561006d5760405163f92ee8a960e01b815260040160405180910390fd5b80546001600160401b03908116146100cc5780546001600160401b0319166001600160401b0390811782556040519081527fc7f505b2f371ae2175ee4913f4499e1f2633a7b5936321eed1cdaeb6115181d29060200160405180910390a15b50565b6121d880620000dd5f395ff3fe608060405234801561000f575f80fd5b506004361061019a575f3560e01c806370a08231116100e8578063ba071e1b11610093578063c53a02921161006e578063c53a02921461037c578063c87b56dd14610384578063ddfdf1e914610397578063e985e9c5146103aa575f80fd5b8063ba071e1b14610341578063bfd8c20a14610361578063c2229fea14610374575f80fd5b8063a22cb465116100c3578063a22cb465146102d9578063b5ed986c146102ec578063b88d4fde1461032e575f80fd5b806370a08231146102b657806378ce9035146102c957806395d89b41146102d1575f80fd5b806323b872dd116101485780636352211e116101235780636352211e1461027d5780636353586b146102905780636e02007d146102af575f80fd5b806323b872dd146102445780633beaa6ab1461025757806342842e0e1461026a575f80fd5b8063095ea7b311610178578063095ea7b3146102065780630b21a83b1461021b5780631f0e9d2c14610231575f80fd5b806301ffc9a71461019e57806306fdde03146101c6578063081812fc146101db575b5f80fd5b6101b16101ac36600461187b565b610404565b60405190151581526020015b60405180910390f35b6101ce610455565b6040516101bd91906118d9565b6101ee6101e93660046118eb565b610509565b6040516001600160a01b0390911681526020016101bd565b61021961021436600461191d565b61054f565b005b6102235f5481565b6040519081526020016101bd565b61021961023f366004611b29565b61055e565b610219610252366004611c85565b6106d8565b6101ce6102653660046118eb565b610766565b610219610278366004611c85565b610813565b6101ee61028b3660046118eb565b610832565b61022361029e366004611cbe565b60056020525f908152604090205481565b5f54610223565b6102236102c4366004611cbe565b61083c565b6101ce6108a7565b6101ce6108c3565b6102196102e7366004611cd7565b610914565b6103156102fa366004611cbe565b60066020525f908152604090205467ffffffffffffffff1681565b60405167ffffffffffffffff90911681526020016101bd565b61021961033c366004611d10565b61091f565b61035461034f366004611d84565b610936565b6040516101bd9190611df1565b6101b161036f366004611e47565b610ad0565b610219610b61565b610219610b7d565b6101ce6103923660046118eb565b610bce565b6102196103a5366004611e93565b610bef565b6101b16103b8366004611efc565b6001600160a01b039182165f9081527f80bb2b638cc20bc4d0a60d66940f3ab4a00c1d7b313497ca82fb0b4ab00793056020908152604080832093909416825291909152205460ff1690565b5f6001600160e01b031982166380ac58cd60e01b148061043457506001600160e01b03198216635b5e139f60e01b145b8061044f57506301ffc9a760e01b6001600160e01b03198316145b92915050565b7f80bb2b638cc20bc4d0a60d66940f3ab4a00c1d7b313497ca82fb0b4ab0079300805460609190819061048790611f2d565b80601f01602080910402602001604051908101604052809291908181526020018280546104b390611f2d565b80156104fe5780601f106104d5576101008083540402835291602001916104fe565b820191905f5260205f20905b8154815290600101906020018083116104e157829003601f168201915b505050505091505090565b5f61051382610cae565b505f8281527f80bb2b638cc20bc4d0a60d66940f3ab4a00c1d7b313497ca82fb0b4ab007930460205260409020546001600160a01b031661044f565b61055a828233610d05565b5050565b7ff0c57e16840df040f15088dc2f81fe391c3923bec73e23a9662efc9c229c6a00805468010000000000000000810460ff16159067ffffffffffffffff165f811580156105a85750825b90505f8267ffffffffffffffff1660011480156105c45750303b155b9050811580156105d2575080155b156105f05760405163f92ee8a960e01b815260040160405180910390fd5b845467ffffffffffffffff19166001178555831561062457845468ff00000000000000001916680100000000000000001785555b61062e8787610d12565b875180518991600191610648918391602090910190611696565b50602082810151805161066192600185019201906116ea565b506040820151805161067d916002840191602090910190611741565b50505f80555083156106ce57845468ff000000000000000019168555604051600181527fc7f505b2f371ae2175ee4913f4499e1f2633a7b5936321eed1cdaeb6115181d29060200160405180910390a15b5050505050505050565b6001600160a01b03821661070657604051633250574960e11b81525f60048201526024015b60405180910390fd5b5f610712838333610d24565b9050836001600160a01b0316816001600160a01b031614610760576040516364283d7b60e01b81526001600160a01b03808616600483015260248201849052821660448201526064016106fd565b50505050565b606060015f01828154811061077d5761077d611f65565b905f5260205f2001805461079090611f2d565b80601f01602080910402602001604051908101604052809291908181526020018280546107bc90611f2d565b80156108075780601f106107de57610100808354040283529160200191610807565b820191905f5260205f20905b8154815290600101906020018083116107ea57829003601f168201915b50505050509050919050565b61082d83838360405180602001604052805f81525061091f565b505050565b5f61044f82610cae565b5f7f80bb2b638cc20bc4d0a60d66940f3ab4a00c1d7b313497ca82fb0b4ab00793006001600160a01b038316610887576040516322718ad960e21b81525f60048201526024016106fd565b6001600160a01b039092165f908152600390920160205250604090205490565b6040518060800160405280605781526020016121756057913981565b7f80bb2b638cc20bc4d0a60d66940f3ab4a00c1d7b313497ca82fb0b4ab007930180546060917f80bb2b638cc20bc4d0a60d66940f3ab4a00c1d7b313497ca82fb0b4ab00793009161048790611f2d565b61055a338383610e6b565b61092a8484846106d8565b61076084848484610f2d565b61093e611786565b836001600160a01b031661095187610832565b6001600160a01b03161461096757610967611f79565b61097385848685610ad0565b151560011461098457610984611f79565b61098c611786565b61099461179e565b610a84610a5f600180018960ff16815481106109b2576109b2611f65565b905f5260205f20015f815481106109cb576109cb611f65565b905f5260205f200180546109de90611f2d565b80601f0160208091040260200160405190810160405280929190818152602001828054610a0a90611f2d565b8015610a555780601f10610a2c57610100808354040283529160200191610a55565b820191905f5260205f20905b815481529060010190602001808311610a3857829003601f168201915b5050505050611053565b6003805460ff8b16908110610a7657610a76611f65565b905f5260205f20015461105f565b815260028054610abf91610a5f9160ff8b16908110610aa557610aa5611f65565b905f5260205f20016001815481106109cb576109cb611f65565b602082015281529695505050505050565b6040805160ff861660208201529081018490525f9081906060016040516020818303038152906040528051906020012090505f610b39827f19457468657265756d205369676e6564204d6573736167653a0a3332000000005f908152601c91909152603c902090565b90505f610b468286611072565b6001600160a01b038781169116149350505050949350505050565b610b6c335f5461109a565b5f54610b79906001611fa1565b5f55565b335f908152600660205260408120805460019290610ba690849067ffffffffffffffff16611fb4565b92506101000a81548167ffffffffffffffff021916908367ffffffffffffffff160217905550565b60606040518060800160405280605781526020016121756057913992915050565b610c05848367ffffffffffffffff168584610ad0565b1515600114610c1657610c16611f79565b6001600160a01b0383165f90815260046020908152604080832067ffffffffffffffff8616845290915281205460ff1615159003610760576001600160a01b0383165f90815260046020908152604080832067ffffffffffffffff861684528252808320805460ff1916600190811790915533845260059092528220805491929091610ca3908490611fa1565b909155505050505050565b5f8181527f80bb2b638cc20bc4d0a60d66940f3ab4a00c1d7b313497ca82fb0b4ab007930260205260408120546001600160a01b03168061044f57604051637e27328960e01b8152600481018490526024016106fd565b61082d83838360016110b3565b610d1a611223565b61055a8282611273565b5f8281527f80bb2b638cc20bc4d0a60d66940f3ab4a00c1d7b313497ca82fb0b4ab007930260205260408120547f80bb2b638cc20bc4d0a60d66940f3ab4a00c1d7b313497ca82fb0b4ab0079300906001600160a01b0390811690841615610d9157610d918185876112b6565b6001600160a01b03811615610dcd57610dac5f865f806110b3565b6001600160a01b0381165f908152600383016020526040902080545f190190555b6001600160a01b03861615610dfd576001600160a01b0386165f9081526003830160205260409020805460010190555b5f858152600283016020526040808220805473ffffffffffffffffffffffffffffffffffffffff19166001600160a01b038a811691821790925591518893918516917fddf252ad1be2c89b69c2b068fc378daa952ba7f163c4a11628f55a4df523b3ef91a495945050505050565b7f80bb2b638cc20bc4d0a60d66940f3ab4a00c1d7b313497ca82fb0b4ab00793006001600160a01b038316610ebe57604051630b61174360e31b81526001600160a01b03841660048201526024016106fd565b6001600160a01b038481165f818152600584016020908152604080832094881680845294825291829020805460ff191687151590811790915591519182527f17307eab39ab6107e8899845ad3d59bd9653f200f220920489ca2b5937696c31910160405180910390a350505050565b6001600160a01b0383163b1561076057604051630a85bd0160e11b81526001600160a01b0384169063150b7a0290610f6f903390889087908790600401611fdc565b6020604051808303815f875af1925050508015610fa9575060408051601f3d908101601f19168201909252610fa691810190612017565b60015b611010573d808015610fd6576040519150601f19603f3d011682016040523d82523d5f602084013e610fdb565b606091505b5080515f0361100857604051633250574960e11b81526001600160a01b03851660048201526024016106fd565b805181602001fd5b6001600160e01b03198116630a85bd0160e11b1461104c57604051633250574960e11b81526001600160a01b03851660048201526024016106fd565b5050505050565b5f61044f82600361131a565b606061106b8383611368565b9392505050565b5f805f806110808686611395565b92509250925061109082826113de565b5090949350505050565b61055a828260405180602001604052805f815250611496565b7f80bb2b638cc20bc4d0a60d66940f3ab4a00c1d7b313497ca82fb0b4ab007930081806110e857506001600160a01b03831615155b156111e6575f6110f785610cae565b90506001600160a01b038416158015906111235750836001600160a01b0316816001600160a01b031614155b801561117357506001600160a01b038082165f9081527f80bb2b638cc20bc4d0a60d66940f3ab4a00c1d7b313497ca82fb0b4ab0079305602090815260408083209388168352929052205460ff16155b1561119c5760405163a9fbf51f60e01b81526001600160a01b03851660048201526024016106fd565b82156111e45784866001600160a01b0316826001600160a01b03167f8c5be1e5ebec7d5bd14f71427d1e84f3dd0314c0f7b2291e5b200ac8c7c3b92560405160405180910390a45b505b5f938452600401602052505060409020805473ffffffffffffffffffffffffffffffffffffffff19166001600160a01b0392909216919091179055565b7ff0c57e16840df040f15088dc2f81fe391c3923bec73e23a9662efc9c229c6a005468010000000000000000900460ff1661127157604051631afcd79f60e31b815260040160405180910390fd5b565b61127b611223565b7f80bb2b638cc20bc4d0a60d66940f3ab4a00c1d7b313497ca82fb0b4ab0079300806112a78482612076565b50600181016107608382612076565b6112c18383836114ac565b61082d576001600160a01b0383166112ef57604051637e27328960e01b8152600481018290526024016106fd565b60405163177e802f60e01b81526001600160a01b0383166004820152602481018290526044016106fd565b5f80601f84511160018114611335576020850151915061133d565b845185015191505b5060208451101561106b578351611355906020612136565b611360906008612149565b1c9392505050565b60408051602080825281830190925260609160208201818036833701905050905082602082015292915050565b5f805f83516041036113cc576020840151604085015160608601515f1a6113be8882858561156d565b9550955095505050506113d7565b505081515f91506002905b9250925092565b5f8260038111156113f1576113f1612160565b036113fa575050565b600182600381111561140e5761140e612160565b0361142c5760405163f645eedf60e01b815260040160405180910390fd5b600282600381111561144057611440612160565b036114615760405163fce698f760e01b8152600481018290526024016106fd565b600382600381111561147557611475612160565b0361055a576040516335e2f38360e21b8152600481018290526024016106fd565b6114a08383611635565b61082d5f848484610f2d565b5f6001600160a01b038316158015906115655750826001600160a01b0316846001600160a01b0316148061152357506001600160a01b038085165f9081527f80bb2b638cc20bc4d0a60d66940f3ab4a00c1d7b313497ca82fb0b4ab0079305602090815260408083209387168352929052205460ff165b8061156557505f8281527f80bb2b638cc20bc4d0a60d66940f3ab4a00c1d7b313497ca82fb0b4ab007930460205260409020546001600160a01b038481169116145b949350505050565b5f80807f7fffffffffffffffffffffffffffffff5d576e7357a4501ddfe92f46681b20a08411156115a657505f9150600390508261162b565b604080515f808252602082018084528a905260ff891692820192909252606081018790526080810186905260019060a0016020604051602081039080840390855afa1580156115f7573d5f803e3d5ffd5b5050604051601f1901519150506001600160a01b03811661162257505f92506001915082905061162b565b92505f91508190505b9450945094915050565b6001600160a01b03821661165e57604051633250574960e11b81525f60048201526024016106fd565b5f61166a83835f610d24565b90506001600160a01b0381161561082d576040516339e3563760e11b81525f60048201526024016106fd565b828054828255905f5260205f209081019282156116da579160200282015b828111156116da57825182906116ca9082612076565b50916020019190600101906116b4565b506116e69291506117c5565b5090565b828054828255905f5260205f20908101928215611735579160200282015b828111156117355782518051611725918491602090910190611696565b5091602001919060010190611708565b506116e69291506117e1565b828054828255905f5260205f2090810192821561177a579160200282015b8281111561177a57825182559160200191906001019061175f565b506116e69291506117fd565b604051806020016040528061179961179e565b905290565b60405180604001604052806002905b60608152602001906001900390816117ad5790505090565b808211156116e6575f6117d88282611811565b506001016117c5565b808211156116e6575f6117f4828261184b565b506001016117e1565b5b808211156116e6575f81556001016117fe565b50805461181d90611f2d565b5f825580601f1061182c575050565b601f0160209004905f5260205f209081019061184891906117fd565b50565b5080545f8255905f5260205f209081019061184891906117c5565b6001600160e01b031981168114611848575f80fd5b5f6020828403121561188b575f80fd5b813561106b81611866565b5f81518084525f5b818110156118ba5760208185018101518683018201520161189e565b505f602082860101526020601f19601f83011685010191505092915050565b602081525f61106b6020830184611896565b5f602082840312156118fb575f80fd5b5035919050565b80356001600160a01b0381168114611918575f80fd5b919050565b5f806040838503121561192e575f80fd5b61193783611902565b946020939093013593505050565b634e487b7160e01b5f52604160045260245ffd5b6040516060810167ffffffffffffffff8111828210171561197c5761197c611945565b60405290565b604051601f8201601f1916810167ffffffffffffffff811182821017156119ab576119ab611945565b604052919050565b5f67ffffffffffffffff8211156119cc576119cc611945565b5060051b60200190565b5f82601f8301126119e5575f80fd5b813567ffffffffffffffff8111156119ff576119ff611945565b611a12601f8201601f1916602001611982565b818152846020838601011115611a26575f80fd5b816020850160208301375f918101602001919091529392505050565b5f82601f830112611a51575f80fd5b81356020611a66611a61836119b3565b611982565b82815260059290921b84018101918181019086841115611a84575f80fd5b8286015b84811015611ac257803567ffffffffffffffff811115611aa6575f80fd5b611ab48986838b01016119d6565b845250918301918301611a88565b509695505050505050565b5f82601f830112611adc575f80fd5b81356020611aec611a61836119b3565b8083825260208201915060208460051b870101935086841115611b0d575f80fd5b602086015b84811015611ac25780358352918301918301611b12565b5f805f60608486031215611b3b575f80fd5b833567ffffffffffffffff80821115611b52575f80fd5b9085019060608288031215611b65575f80fd5b611b6d611959565b823582811115611b7b575f80fd5b611b8789828601611a42565b82525060208084013583811115611b9c575f80fd5b8401601f81018a13611bac575f80fd5b8035611bba611a61826119b3565b81815260059190911b8201830190838101908c831115611bd8575f80fd5b8484015b83811015611c0e57803588811115611bf2575f80fd5b611c008f8883890101611a42565b845250918501918501611bdc565b5085850152505050604084013583811115611c27575f80fd5b611c338a828701611acd565b604084015250909550860135915080821115611c4d575f80fd5b611c59878388016119d6565b93506040860135915080821115611c6e575f80fd5b50611c7b868287016119d6565b9150509250925092565b5f805f60608486031215611c97575f80fd5b611ca084611902565b9250611cae60208501611902565b9150604084013590509250925092565b5f60208284031215611cce575f80fd5b61106b82611902565b5f8060408385031215611ce8575f80fd5b611cf183611902565b915060208301358015158114611d05575f80fd5b809150509250929050565b5f805f8060808587031215611d23575f80fd5b611d2c85611902565b9350611d3a60208601611902565b925060408501359150606085013567ffffffffffffffff811115611d5c575f80fd5b611d68878288016119d6565b91505092959194509250565b803560ff81168114611918575f80fd5b5f805f805f60a08688031215611d98575f80fd5b85359450611da860208701611d74565b9350611db660408701611902565b925060608601359150608086013567ffffffffffffffff811115611dd8575f80fd5b611de4888289016119d6565b9150509295509295909350565b602080825282518282018290525f9190608084019060408501845b6002811015611e3b57603f19878503018252611e29848451611896565b93509184019190840190600101611e0c565b50919695505050505050565b5f805f8060808587031215611e5a575f80fd5b611e6385611d74565b935060208501359250611e7860408601611902565b9150606085013567ffffffffffffffff811115611d5c575f80fd5b5f805f8060808587031215611ea6575f80fd5b611eaf85611d74565b9350611ebd60208601611902565b9250604085013567ffffffffffffffff8082168214611eda575f80fd5b90925060608601359080821115611eef575f80fd5b50611d68878288016119d6565b5f8060408385031215611f0d575f80fd5b611f1683611902565b9150611f2460208401611902565b90509250929050565b600181811c90821680611f4157607f821691505b602082108103611f5f57634e487b7160e01b5f52602260045260245ffd5b50919050565b634e487b7160e01b5f52603260045260245ffd5b634e487b7160e01b5f52600160045260245ffd5b634e487b7160e01b5f52601160045260245ffd5b8082018082111561044f5761044f611f8d565b67ffffffffffffffff818116838216019080821115611fd557611fd5611f8d565b5092915050565b5f6001600160a01b0380871683528086166020840152508360408301526080606083015261200d6080830184611896565b9695505050505050565b5f60208284031215612027575f80fd5b815161106b81611866565b601f82111561082d57805f5260205f20601f840160051c810160208510156120575750805b601f840160051c820191505b8181101561104c575f8155600101612063565b815167ffffffffffffffff81111561209057612090611945565b6120a48161209e8454611f2d565b84612032565b602080601f8311600181146120d7575f84156120c05750858301515b5f19600386901b1c1916600185901b17855561212e565b5f85815260208120601f198616915b82811015612105578886015182559484019460019091019084016120e6565b508582101561212257878501515f19600388901b60f8161c191681555b505060018460011b0185555b505050505050565b8181038181111561044f5761044f611f8d565b808202811582820484141761044f5761044f611f8d565b634e487b7160e01b5f52602160045260245ffdfe697066733a2f2f62616679626569673337696f6972373673376d67356f6f6265746e636f6a636d3363336878617379643472766964346a71687934676b61686567342f3f66696c656e616d653d302d5055472e6a736f6ea164736f6c6343000816000a",
  "linkReferences": {},
  "deployedLinkReferences": {}
}